{"abi":[{"type":"constructor","inputs":[{"name":"_eggs","type":"address","internalType":"address"}],"stateMutability":"nonpayable"},{"type":"function","name":"allAntsIds","inputs":[{"name":"","type":"uint256","internalType":"uint256"}],"outputs":[{"name":"","type":"uint256","internalType":"uint256"}],"stateMutability":"view"},{"type":"function","name":"antToOwner","inputs":[{"name":"","type":"uint256","internalType":"uint256"}],"outputs":[{"name":"","type":"address","internalType":"address"}],"stateMutability":"view"},{"type":"function","name":"antsCreated","inputs":[],"outputs":[{"name":"","type":"uint256","internalType":"uint256"}],"stateMutability":"view"},{"type":"function","name":"approve","inputs":[{"name":"to","type":"address","internalType":"address"},{"name":"tokenId","type":"uint256","internalType":"uint256"}],"outputs":[],"stateMutability":"nonpayable"},{"type":"function","name":"balanceOf","inputs":[{"name":"owner","type":"address","internalType":"address"}],"outputs":[{"name":"","type":"uint256","internalType":"uint256"}],"stateMutability":"view"},{"type":"function","name":"buyEggs","inputs":[{"name":"_amount","type":"uint256","internalType":"uint256"}],"outputs":[],"stateMutability":"payable"},{"type":"function","name":"createAnt","inputs":[],"outputs":[],"stateMutability":"nonpayable"},{"type":"function","name":"eggPrice","inputs":[],"outputs":[{"name":"","type":"uint256","internalType":"uint256"}],"stateMutability":"view"},{"type":"function","name":"eggs","inputs":[],"outputs":[{"name":"","type":"address","internalType":"contract IEgg"}],"stateMutability":"view"},{"type":"function","name":"getAntsCreated","inputs":[],"outputs":[{"name":"","type":"uint256","internalType":"uint256"}],"stateMutability":"view"},{"type":"function","name":"getApproved","inputs":[{"name":"tokenId","type":"uint256","internalType":"uint256"}],"outputs":[{"name":"","type":"address","internalType":"address"}],"stateMutability":"view"},{"type":"function","name":"getContractBalance","inputs":[],"outputs":[{"name":"","type":"uint256","internalType":"uint256"}],"stateMutability":"view"},{"type":"function","name":"isApprovedForAll","inputs":[{"name":"owner","type":"address","internalType":"address"},{"name":"operator","type":"address","internalType":"address"}],"outputs":[{"name":"","type":"bool","internalType":"bool"}],"stateMutability":"view"},{"type":"function","name":"locked","inputs":[],"outputs":[{"name":"","type":"bool","internalType":"bool"}],"stateMutability":"view"},{"type":"function","name":"name","inputs":[],"outputs":[{"name":"","type":"string","internalType":"string"}],"stateMutability":"view"},{"type":"function","name":"notLocked","inputs":[],"outputs":[{"name":"","type":"bool","internalType":"bool"}],"stateMutability":"view"},{"type":"function","name":"ownerOf","inputs":[{"name":"tokenId","type":"uint256","internalType":"uint256"}],"outputs":[{"name":"","type":"address","internalType":"address"}],"stateMutability":"view"},{"type":"function","name":"safeTransferFrom","inputs":[{"name":"from","type":"address","internalType":"address"},{"name":"to","type":"address","internalType":"address"},{"name":"tokenId","type":"uint256","internalType":"uint256"}],"outputs":[],"stateMutability":"nonpayable"},{"type":"function","name":"safeTransferFrom","inputs":[{"name":"from","type":"address","internalType":"address"},{"name":"to","type":"address","internalType":"address"},{"name":"tokenId","type":"uint256","internalType":"uint256"},{"name":"data","type":"bytes","internalType":"bytes"}],"outputs":[],"stateMutability":"nonpayable"},{"type":"function","name":"sellAnt","inputs":[{"name":"_antId","type":"uint256","internalType":"uint256"}],"outputs":[],"stateMutability":"nonpayable"},{"type":"function","name":"setApprovalForAll","inputs":[{"name":"operator","type":"address","internalType":"address"},{"name":"approved","type":"bool","internalType":"bool"}],"outputs":[],"stateMutability":"nonpayable"},{"type":"function","name":"supportsInterface","inputs":[{"name":"interfaceId","type":"bytes4","internalType":"bytes4"}],"outputs":[{"name":"","type":"bool","internalType":"bool"}],"stateMutability":"view"},{"type":"function","name":"symbol","inputs":[],"outputs":[{"name":"","type":"string","internalType":"string"}],"stateMutability":"view"},{"type":"function","name":"tokenURI","inputs":[{"name":"tokenId","type":"uint256","internalType":"uint256"}],"outputs":[{"name":"","type":"string","internalType":"string"}],"stateMutability":"view"},{"type":"function","name":"transferFrom","inputs":[{"name":"from","type":"address","internalType":"address"},{"name":"to","type":"address","internalType":"address"},{"name":"tokenId","type":"uint256","internalType":"uint256"}],"outputs":[],"stateMutability":"nonpayable"},{"type":"event","name":"AntCreated","inputs":[],"anonymous":false},{"type":"event","name":"AntSold","inputs":[],"anonymous":false},{"type":"event","name":"Approval","inputs":[{"name":"owner","type":"address","indexed":true,"internalType":"address"},{"name":"approved","type":"address","indexed":true,"internalType":"address"},{"name":"tokenId","type":"uint256","indexed":true,"internalType":"uint256"}],"anonymous":false},{"type":"event","name":"ApprovalForAll","inputs":[{"name":"owner","type":"address","indexed":true,"internalType":"address"},{"name":"operator","type":"address","indexed":true,"internalType":"address"},{"name":"approved","type":"bool","indexed":false,"internalType":"bool"}],"anonymous":false},{"type":"event","name":"EggsBought","inputs":[{"name":"","type":"address","indexed":false,"internalType":"address"},{"name":"","type":"uint256","indexed":false,"internalType":"uint256"}],"anonymous":false},{"type":"event","name":"Transfer","inputs":[{"name":"from","type":"address","indexed":true,"internalType":"address"},{"name":"to","type":"address","indexed":true,"internalType":"address"},{"name":"tokenId","type":"uint256","indexed":true,"internalType":"uint256"}],"anonymous":false},{"type":"error","name":"AlreadyExists","inputs":[]},{"type":"error","name":"ERC721IncorrectOwner","inputs":[{"name":"sender","type":"address","internalType":"address"},{"name":"tokenId","type":"uint256","internalType":"uint256"},{"name":"owner","type":"address","internalType":"address"}]},{"type":"error","name":"ERC721InsufficientApproval","inputs":[{"name":"operator","type":"address","internalType":"address"},{"name":"tokenId","type":"uint256","internalType":"uint256"}]},{"type":"error","name":"ERC721InvalidApprover","inputs":[{"name":"approver","type":"address","internalType":"address"}]},{"type":"error","name":"ERC721InvalidOperator","inputs":[{"name":"operator","type":"address","internalType":"address"}]},{"type":"error","name":"ERC721InvalidOwner","inputs":[{"name":"owner","type":"address","internalType":"address"}]},{"type":"error","name":"ERC721InvalidReceiver","inputs":[{"name":"receiver","type":"address","internalType":"address"}]},{"type":"error","name":"ERC721InvalidSender","inputs":[{"name":"sender","type":"address","internalType":"address"}]},{"type":"error","name":"ERC721NonexistentToken","inputs":[{"name":"tokenId","type":"uint256","internalType":"uint256"}]},{"type":"error","name":"NoEggs","inputs":[]},{"type":"error","name":"NoZeroAddress","inputs":[]},{"type":"error","name":"WrongEtherSent","inputs":[]}],"bytecode":{"object":"0x60a06040526006805460ff19908116909155662386f26fc10000600855600a805490911690556000600b553480156200003757600080fd5b5060405162001ed838038062001ed88339810160408190526200005a91620000d0565b6040518060400160405280600b81526020016a43727970746f20416e747360a81b81525060405180604001604052806004815260200163414e545360e01b8152508160009081620000ac9190620001a9565b506001620000bb8282620001a9565b5050506001600160a01b031660805262000275565b600060208284031215620000e357600080fd5b81516001600160a01b0381168114620000fb57600080fd5b9392505050565b634e487b7160e01b600052604160045260246000fd5b600181811c908216806200012d57607f821691505b6020821081036200014e57634e487b7160e01b600052602260045260246000fd5b50919050565b601f821115620001a4576000816000526020600020601f850160051c810160208610156200017f5750805b601f850160051c820191505b81811015620001a0578281556001016200018b565b5050505b505050565b81516001600160401b03811115620001c557620001c562000102565b620001dd81620001d6845462000118565b8462000154565b602080601f831160018114620002155760008415620001fc5750858301515b600019600386901b1c1916600185901b178555620001a0565b600085815260208120601f198616915b82811015620002465788860151825594840194600190910190840162000225565b5085821015620002655787850151600019600388901b60f8161c191681555b5050505050600190811b01905550565b608051611c396200029f60003960008181610451015281816107940152610a830152611c396000f3fe6080604052600436106101965760003560e01c80636352211e116100e1578063b01109861161008a578063cf30901211610064578063cf30901214610425578063e33f76cf1461043f578063e985e9c514610473578063f770031c146104bc57600080fd5b8063b0110986146103c5578063b88d4fde146103e5578063c87b56dd1461040557600080fd5b806395d89b41116100bb57806395d89b411461037a578063a22cb4651461038f578063a993efbc146103af57600080fd5b80636352211e146103275780636f9fb98a1461034757806370a082311461035a57600080fd5b80632e61a7bf1161014357806342842e0e1161011d57806342842e0e146102d45780634fd53596146102f457806361dcb0541461030757600080fd5b80632e61a7bf14610286578063305e35521461029b5780633d871229146102bf57600080fd5b8063095ea7b311610174578063095ea7b31461022a57806317e356a11461024c57806323b872dd1461026657600080fd5b806301ffc9a71461019b57806306fdde03146101d0578063081812fc146101f2575b600080fd5b3480156101a757600080fd5b506101bb6101b636600461175a565b6104f2565b60405190151581526020015b60405180910390f35b3480156101dc57600080fd5b506101e56105d7565b6040516101c791906117e5565b3480156101fe57600080fd5b5061021261020d3660046117f8565b610669565b6040516001600160a01b0390911681526020016101c7565b34801561023657600080fd5b5061024a61024536600461182d565b610692565b005b34801561025857600080fd5b50600a546101bb9060ff1681565b34801561027257600080fd5b5061024a610281366004611857565b6106a1565b34801561029257600080fd5b5061024a610763565b3480156102a757600080fd5b506102b160085481565b6040519081526020016101c7565b3480156102cb57600080fd5b50600b546102b1565b3480156102e057600080fd5b5061024a6102ef366004611857565b61095e565b61024a6103023660046117f8565b61097e565b34801561031357600080fd5b5061024a6103223660046117f8565b610b5c565b34801561033357600080fd5b506102126103423660046117f8565b610cd2565b34801561035357600080fd5b50476102b1565b34801561036657600080fd5b506102b1610375366004611893565b610cdd565b34801561038657600080fd5b506101e5610d3e565b34801561039b57600080fd5b5061024a6103aa3660046118ae565b610d4d565b3480156103bb57600080fd5b506102b1600b5481565b3480156103d157600080fd5b506102b16103e03660046117f8565b610d58565b3480156103f157600080fd5b5061024a610400366004611919565b610d79565b34801561041157600080fd5b506101e56104203660046117f8565b610d90565b34801561043157600080fd5b506006546101bb9060ff1681565b34801561044b57600080fd5b506102127f000000000000000000000000000000000000000000000000000000000000000081565b34801561047f57600080fd5b506101bb61048e366004611a13565b6001600160a01b03918216600090815260056020908152604080832093909416825291909152205460ff1690565b3480156104c857600080fd5b506102126104d73660046117f8565b6007602052600090815260409020546001600160a01b031681565b60007fffffffff0000000000000000000000000000000000000000000000000000000082167f80ac58cd00000000000000000000000000000000000000000000000000000000148061058557507fffffffff0000000000000000000000000000000000000000000000000000000082167f5b5e139f00000000000000000000000000000000000000000000000000000000145b806105d157507f01ffc9a7000000000000000000000000000000000000000000000000000000007fffffffff000000000000000000000000000000000000000000000000000000008316145b92915050565b6060600080546105e690611a46565b80601f016020809104026020016040519081016040528092919081815260200182805461061290611a46565b801561065f5780601f106106345761010080835404028352916020019161065f565b820191906000526020600020905b81548152906001019060200180831161064257829003601f168201915b5050505050905090565b600061067482610e05565b506000828152600460205260409020546001600160a01b03166105d1565b61069d828233610e57565b5050565b6001600160a01b0382166106e9576040517f64a0ae92000000000000000000000000000000000000000000000000000000008152600060048201526024015b60405180910390fd5b60006106f6838333610e64565b9050836001600160a01b0316816001600160a01b03161461075d576040517f64283d7b0000000000000000000000000000000000000000000000000000000081526001600160a01b03808616600483015260248201849052821660448201526064016106e0565b50505050565b6040517f70a082310000000000000000000000000000000000000000000000000000000081523360048201526001907f00000000000000000000000000000000000000000000000000000000000000006001600160a01b0316906370a0823190602401602060405180830381865afa1580156107e3573d6000803e3d6000fd5b505050506040513d601f19601f820116820180604052508101906108079190611a99565b101561083f576040517f6c308a2f00000000000000000000000000000000000000000000000000000000815260040160405180910390fd5b6000600b6000815461085090611ab2565b9182905550905060005b6009548110156108c257816009828154811061087857610878611b11565b9060005260206000200154036108ba576040517f23369fa600000000000000000000000000000000000000000000000000000000815260040160405180910390fd5b60010161085a565b506108cd3382610f93565b60008181526007602052604080822080547fffffffffffffffffffffffff00000000000000000000000000000000000000001633179055600980546001810182559083527f6e1540171b6c0c960b71a7020d9f60077f6af931a8bbf590da0223dacf75c7af01839055517fa38da27c8afea1e833812265c5f9c3f1def6eaf2e7d9b42c1b4d9d8ea69b0b759190a150565b61097983838360405180602001604052806000815250610d79565b505050565b60065460ff1615610a11576040517f08c379a000000000000000000000000000000000000000000000000000000000815260206004820152602e60248201527f536f7272792c20796f7520617265206e6f7420616c6c6f77656420746f20726560448201527f2d656e7465722068657265203a2900000000000000000000000000000000000060648201526084016106e0565b600680547fffffffffffffffffffffffffffffffffffffffffffffffffffffffffffffff001660011790556008546000610a4b8234611b40565b6040517f40c10f19000000000000000000000000000000000000000000000000000000008152336004820152602481018590529091507f00000000000000000000000000000000000000000000000000000000000000006001600160a01b0316906340c10f1990604401600060405180830381600087803b158015610acf57600080fd5b505af1158015610ae3573d6000803e3d6000fd5b505060408051338152602081018590527fecedcda9002dd5028204a70dddaa2155459b6dff3c3e20543450a189e736dc49935001905060405180910390a15050600a54600680547fffffffffffffffffffffffffffffffffffffffffffffffffffffffffffffff001660ff909216151591909117905550565b6000818152600760205260409020546001600160a01b03163314610bdc576040517f08c379a000000000000000000000000000000000000000000000000000000000815260206004820152600c60248201527f556e617574686f72697a6564000000000000000000000000000000000000000060448201526064016106e0565b6040516000903390660e35fa931a0000908381818185875af1925050503d8060008114610c25576040519150601f19603f3d011682016040523d82523d6000602084013e610c2a565b606091505b5050905080610c95576040517f08c379a000000000000000000000000000000000000000000000000000000000815260206004820152601960248201527f57686f6f70732c20746869732063616c6c206661696c6564210000000000000060448201526064016106e0565b600082815260076020526040902080547fffffffffffffffffffffffff000000000000000000000000000000000000000016905561069d8261102a565b60006105d182610e05565b60006001600160a01b038216610d22576040517f89c62b64000000000000000000000000000000000000000000000000000000008152600060048201526024016106e0565b506001600160a01b031660009081526003602052604090205490565b6060600180546105e690611a46565b61069d33838361107e565b60098181548110610d6857600080fd5b600091825260209091200154905081565b610d848484846106a1565b61075d84848484611154565b6060610d9b82610e05565b506000610db360408051602081019091526000815290565b90506000815111610dd35760405180602001604052806000815250610dfe565b80610ddd84611317565b604051602001610dee929190611b7b565b6040516020818303038152906040525b9392505050565b6000818152600260205260408120546001600160a01b0316806105d1576040517f7e273289000000000000000000000000000000000000000000000000000000008152600481018490526024016106e0565b61097983838360016113d5565b6000828152600260205260408120546001600160a01b0390811690831615610e9157610e9181848661152b565b6001600160a01b03811615610eed57610eae6000856000806113d5565b6001600160a01b038116600090815260036020526040902080547fffffffffffffffffffffffffffffffffffffffffffffffffffffffffffffffff0190555b6001600160a01b03851615610f1c576001600160a01b0385166000908152600360205260409020805460010190555b60008481526002602052604080822080547fffffffffffffffffffffffff0000000000000000000000000000000000000000166001600160a01b0389811691821790925591518793918516917fddf252ad1be2c89b69c2b068fc378daa952ba7f163c4a11628f55a4df523b3ef91a4949350505050565b6001600160a01b038216610fd6576040517f64a0ae92000000000000000000000000000000000000000000000000000000008152600060048201526024016106e0565b6000610fe483836000610e64565b90506001600160a01b03811615610979576040517f73c6ac6e000000000000000000000000000000000000000000000000000000008152600060048201526024016106e0565b60006110396000836000610e64565b90506001600160a01b03811661069d576040517f7e273289000000000000000000000000000000000000000000000000000000008152600481018390526024016106e0565b6001600160a01b0382166110c9576040517f5b08ba180000000000000000000000000000000000000000000000000000000081526001600160a01b03831660048201526024016106e0565b6001600160a01b0383811660008181526005602090815260408083209487168084529482529182902080547fffffffffffffffffffffffffffffffffffffffffffffffffffffffffffffff001686151590811790915591519182527f17307eab39ab6107e8899845ad3d59bd9653f200f220920489ca2b5937696c31910160405180910390a3505050565b6001600160a01b0383163b1561075d576040517f150b7a020000000000000000000000000000000000000000000000000000000081526001600160a01b0384169063150b7a02906111af903390889087908790600401611baa565b6020604051808303816000875af1925050508015611208575060408051601f3d9081017fffffffffffffffffffffffffffffffffffffffffffffffffffffffffffffffe016820190925261120591810190611be6565b60015b61128a573d808015611236576040519150601f19603f3d011682016040523d82523d6000602084013e61123b565b606091505b508051600003611282576040517f64a0ae920000000000000000000000000000000000000000000000000000000081526001600160a01b03851660048201526024016106e0565b805181602001fd5b7fffffffff0000000000000000000000000000000000000000000000000000000081167f150b7a020000000000000000000000000000000000000000000000000000000014611310576040517f64a0ae920000000000000000000000000000000000000000000000000000000081526001600160a01b03851660048201526024016106e0565b5050505050565b60606000611324836115c1565b600101905060008167ffffffffffffffff811115611344576113446118ea565b6040519080825280601f01601f19166020018201604052801561136e576020820181803683370190505b5090508181016020015b7fffffffffffffffffffffffffffffffffffffffffffffffffffffffffffffffff017f3031323334353637383961626364656600000000000000000000000000000000600a86061a8153600a850494508461137857509392505050565b80806113e957506001600160a01b03821615155b156114e35760006113f984610e05565b90506001600160a01b038316158015906114255750826001600160a01b0316816001600160a01b031614155b801561145757506001600160a01b0380821660009081526005602090815260408083209387168352929052205460ff16155b15611499576040517fa9fbf51f0000000000000000000000000000000000000000000000000000000081526001600160a01b03841660048201526024016106e0565b81156114e15783856001600160a01b0316826001600160a01b03167f8c5be1e5ebec7d5bd14f71427d1e84f3dd0314c0f7b2291e5b200ac8c7c3b92560405160405180910390a45b505b5050600090815260046020526040902080547fffffffffffffffffffffffff0000000000000000000000000000000000000000166001600160a01b0392909216919091179055565b6115368383836116a3565b610979576001600160a01b03831661157d576040517f7e273289000000000000000000000000000000000000000000000000000000008152600481018290526024016106e0565b6040517f177e802f0000000000000000000000000000000000000000000000000000000081526001600160a01b0383166004820152602481018290526044016106e0565b6000807a184f03e93ff9f4daa797ed6e38ed64bf6a1f010000000000000000831061160a577a184f03e93ff9f4daa797ed6e38ed64bf6a1f010000000000000000830492506040015b6d04ee2d6d415b85acef81000000008310611636576d04ee2d6d415b85acef8100000000830492506020015b662386f26fc10000831061165457662386f26fc10000830492506010015b6305f5e100831061166c576305f5e100830492506008015b612710831061168057612710830492506004015b60648310611692576064830492506002015b600a83106105d15760010192915050565b60006001600160a01b038316158015906117215750826001600160a01b0316846001600160a01b031614806116fd57506001600160a01b0380851660009081526005602090815260408083209387168352929052205460ff165b8061172157506000828152600460205260409020546001600160a01b038481169116145b949350505050565b7fffffffff000000000000000000000000000000000000000000000000000000008116811461175757600080fd5b50565b60006020828403121561176c57600080fd5b8135610dfe81611729565b60005b8381101561179257818101518382015260200161177a565b50506000910152565b600081518084526117b3816020860160208601611777565b601f017fffffffffffffffffffffffffffffffffffffffffffffffffffffffffffffffe0169290920160200192915050565b602081526000610dfe602083018461179b565b60006020828403121561180a57600080fd5b5035919050565b80356001600160a01b038116811461182857600080fd5b919050565b6000806040838503121561184057600080fd5b61184983611811565b946020939093013593505050565b60008060006060848603121561186c57600080fd5b61187584611811565b925061188360208501611811565b9150604084013590509250925092565b6000602082840312156118a557600080fd5b610dfe82611811565b600080604083850312156118c157600080fd5b6118ca83611811565b9150602083013580151581146118df57600080fd5b809150509250929050565b7f4e487b7100000000000000000000000000000000000000000000000000000000600052604160045260246000fd5b6000806000806080858703121561192f57600080fd5b61193885611811565b935061194660208601611811565b925060408501359150606085013567ffffffffffffffff8082111561196a57600080fd5b818701915087601f83011261197e57600080fd5b813581811115611990576119906118ea565b604051601f82017fffffffffffffffffffffffffffffffffffffffffffffffffffffffffffffffe0908116603f011681019083821181831017156119d6576119d66118ea565b816040528281528a60208487010111156119ef57600080fd5b82602086016020830137600060208483010152809550505050505092959194509250565b60008060408385031215611a2657600080fd5b611a2f83611811565b9150611a3d60208401611811565b90509250929050565b600181811c90821680611a5a57607f821691505b602082108103611a93577f4e487b7100000000000000000000000000000000000000000000000000000000600052602260045260246000fd5b50919050565b600060208284031215611aab57600080fd5b5051919050565b60007fffffffffffffffffffffffffffffffffffffffffffffffffffffffffffffffff8203611b0a577f4e487b7100000000000000000000000000000000000000000000000000000000600052601160045260246000fd5b5060010190565b7f4e487b7100000000000000000000000000000000000000000000000000000000600052603260045260246000fd5b600082611b76577f4e487b7100000000000000000000000000000000000000000000000000000000600052601260045260246000fd5b500490565b60008351611b8d818460208801611777565b835190830190611ba1818360208801611777565b01949350505050565b60006001600160a01b03808716835280861660208401525083604083015260806060830152611bdc608083018461179b565b9695505050505050565b600060208284031215611bf857600080fd5b8151610dfe8161172956fea2646970667358221220dd1c7c9a941b9a7add2c77289e8794b8df79ad86442bd7365f93b960e561d67e64736f6c63430008170033","linkReferences":{}},"methodIdentifiers":{"allAntsIds(uint256)":"b0110986","antToOwner(uint256)":"f770031c","antsCreated()":"a993efbc","approve(address,uint256)":"095ea7b3","balanceOf(address)":"70a08231","buyEggs(uint256)":"4fd53596","createAnt()":"2e61a7bf","eggPrice()":"305e3552","eggs()":"e33f76cf","getAntsCreated()":"3d871229","getApproved(uint256)":"081812fc","getContractBalance()":"6f9fb98a","isApprovedForAll(address,address)":"e985e9c5","locked()":"cf309012","name()":"06fdde03","notLocked()":"17e356a1","ownerOf(uint256)":"6352211e","safeTransferFrom(address,address,uint256)":"42842e0e","safeTransferFrom(address,address,uint256,bytes)":"b88d4fde","sellAnt(uint256)":"61dcb054","setApprovalForAll(address,bool)":"a22cb465","supportsInterface(bytes4)":"01ffc9a7","symbol()":"95d89b41","tokenURI(uint256)":"c87b56dd","transferFrom(address,address,uint256)":"23b872dd"},"id":39}